{
  "_format": "hh-sol-artifact-1",
  "contractName": "Certificate",
  "sourceName": "contracts/Certificate.sol",
  "abi": [
    {
      "inputs": [],
      "stateMutability": "nonpayable",
      "type": "constructor"
    },
    {
      "inputs": [
        {
          "internalType": "address",
          "name": "_uploader",
          "type": "address"
        }
      ],
      "name": "addUploader",
      "outputs": [],
      "stateMutability": "nonpayable",
      "type": "function"
    },
    {
      "inputs": [],
      "name": "admin",
      "outputs": [
        {
          "internalType": "address",
          "name": "",
          "type": "address"
        }
      ],
      "stateMutability": "view",
      "type": "function"
    },
    {
      "inputs": [
        {
          "internalType": "address",
          "name": "",
          "type": "address"
        }
      ],
      "name": "authorizedUploaders",
      "outputs": [
        {
          "internalType": "bool",
          "name": "",
          "type": "bool"
        }
      ],
      "stateMutability": "view",
      "type": "function"
    },
    {
      "inputs": [
        {
          "internalType": "string",
          "name": "",
          "type": "string"
        }
      ],
      "name": "documents",
      "outputs": [
        {
          "internalType": "string",
          "name": "fileHash",
          "type": "string"
        },
        {
          "internalType": "string",
          "name": "university",
          "type": "string"
        },
        {
          "internalType": "uint256",
          "name": "timestamp",
          "type": "uint256"
        },
        {
          "internalType": "address",
          "name": "uploader",
          "type": "address"
        }
      ],
      "stateMutability": "view",
      "type": "function"
    },
    {
      "inputs": [
        {
          "internalType": "address",
          "name": "_uploader",
          "type": "address"
        }
      ],
      "name": "removeUploader",
      "outputs": [],
      "stateMutability": "nonpayable",
      "type": "function"
    },
    {
      "inputs": [
        {
          "internalType": "string",
          "name": "_fileHash",
          "type": "string"
        },
        {
          "internalType": "string",
          "name": "_university",
          "type": "string"
        }
      ],
      "name": "uploadDocument",
      "outputs": [],
      "stateMutability": "nonpayable",
      "type": "function"
    },
    {
      "inputs": [
        {
          "internalType": "string",
          "name": "_fileHash",
          "type": "string"
        }
      ],
      "name": "verifyDocument",
      "outputs": [
        {
          "internalType": "string",
          "name": "",
          "type": "string"
        },
        {
          "internalType": "string",
          "name": "",
          "type": "string"
        },
        {
          "internalType": "uint256",
          "name": "",
          "type": "uint256"
        },
        {
          "internalType": "address",
          "name": "",
          "type": "address"
        }
      ],
      "stateMutability": "view",
      "type": "function"
    }
  ],
  "bytecode": "0x6080604052348015600f57600080fd5b5033600260006101000a81548173ffffffffffffffffffffffffffffffffffffffff021916908373ffffffffffffffffffffffffffffffffffffffff1602179055506001806000600260009054906101000a900473ffffffffffffffffffffffffffffffffffffffff1673ffffffffffffffffffffffffffffffffffffffff1673ffffffffffffffffffffffffffffffffffffffff16815260200190815260200160002060006101000a81548160ff021916908315150217905550611165806100d96000396000f3fe608060405234801561001057600080fd5b506004361061007d5760003560e01c8063b3dd697b1161005b578063b3dd697b146100d6578063beee5eb714610109578063cc7ac3b61461013c578063f851a4401461016c5761007d565b806339a88307146100825780634464fe331461009e57806348bbde5d146100ba575b600080fd5b61009c6004803603810190610097919061093b565b61018a565b005b6100b860048036038101906100b39190610aae565b610275565b005b6100d460048036038101906100cf919061093b565b610449565b005b6100f060048036038101906100eb9190610b26565b610533565b6040516101009493929190610c16565b60405180910390f35b610123600480360381019061011e9190610b26565b6106a9565b6040516101339493929190610c16565b60405180910390f35b6101566004803603810190610151919061093b565b610883565b6040516101639190610c84565b60405180910390f35b6101746108a3565b6040516101819190610c9f565b60405180910390f35b600260009054906101000a900473ffffffffffffffffffffffffffffffffffffffff1673ffffffffffffffffffffffffffffffffffffffff163373ffffffffffffffffffffffffffffffffffffffff161461021a576040517f08c379a000000000000000000000000000000000000000000000000000000000815260040161021190610d06565b60405180910390fd5b6000600160008373ffffffffffffffffffffffffffffffffffffffff1673ffffffffffffffffffffffffffffffffffffffff16815260200190815260200160002060006101000a81548160ff02191690831515021790555050565b600160003373ffffffffffffffffffffffffffffffffffffffff1673ffffffffffffffffffffffffffffffffffffffff16815260200190815260200160002060009054906101000a900460ff16610301576040517f08c379a00000000000000000000000000000000000000000000000000000000081526004016102f890610d72565b60405180910390fd5b600080836040516103129190610dce565b9081526020016040518091039020600001805461032e90610e14565b905014610370576040517f08c379a000000000000000000000000000000000000000000000000000000000815260040161036790610e91565b60405180910390fd5b60405180608001604052808381526020018281526020014281526020013373ffffffffffffffffffffffffffffffffffffffff168152506000836040516103b79190610dce565b908152602001604051809103902060008201518160000190816103da919061105d565b5060208201518160010190816103f0919061105d565b506040820151816002015560608201518160030160006101000a81548173ffffffffffffffffffffffffffffffffffffffff021916908373ffffffffffffffffffffffffffffffffffffffff1602179055509050505050565b600260009054906101000a900473ffffffffffffffffffffffffffffffffffffffff1673ffffffffffffffffffffffffffffffffffffffff163373ffffffffffffffffffffffffffffffffffffffff16146104d9576040517f08c379a00000000000000000000000000000000000000000000000000000000081526004016104d090610d06565b60405180910390fd5b60018060008373ffffffffffffffffffffffffffffffffffffffff1673ffffffffffffffffffffffffffffffffffffffff16815260200190815260200160002060006101000a81548160ff02191690831515021790555050565b60008180516020810182018051848252602083016020850120818352809550505050505060009150905080600001805461056c90610e14565b80601f016020809104026020016040519081016040528092919081815260200182805461059890610e14565b80156105e55780601f106105ba576101008083540402835291602001916105e5565b820191906000526020600020905b8154815290600101906020018083116105c857829003601f168201915b5050505050908060010180546105fa90610e14565b80601f016020809104026020016040519081016040528092919081815260200182805461062690610e14565b80156106735780601f1061064857610100808354040283529160200191610673565b820191906000526020600020905b81548152906001019060200180831161065657829003601f168201915b5050505050908060020154908060030160009054906101000a900473ffffffffffffffffffffffffffffffffffffffff16905084565b606080600080600080866040516106c09190610dce565b90815260200160405180910390206040518060800160405290816000820180546106e990610e14565b80601f016020809104026020016040519081016040528092919081815260200182805461071590610e14565b80156107625780601f1061073757610100808354040283529160200191610762565b820191906000526020600020905b81548152906001019060200180831161074557829003601f168201915b5050505050815260200160018201805461077b90610e14565b80601f01602080910402602001604051908101604052809291908181526020018280546107a790610e14565b80156107f45780601f106107c9576101008083540402835291602001916107f4565b820191906000526020600020905b8154815290600101906020018083116107d757829003601f168201915b50505050508152602001600282015481526020016003820160009054906101000a900473ffffffffffffffffffffffffffffffffffffffff1673ffffffffffffffffffffffffffffffffffffffff1673ffffffffffffffffffffffffffffffffffffffff1681525050905080600001518160200151826040015183606001519450945094509450509193509193565b60016020528060005260406000206000915054906101000a900460ff1681565b600260009054906101000a900473ffffffffffffffffffffffffffffffffffffffff1681565b6000604051905090565b600080fd5b600080fd5b600073ffffffffffffffffffffffffffffffffffffffff82169050919050565b6000610908826108dd565b9050919050565b610918816108fd565b811461092357600080fd5b50565b6000813590506109358161090f565b92915050565b600060208284031215610951576109506108d3565b5b600061095f84828501610926565b91505092915050565b600080fd5b600080fd5b6000601f19601f8301169050919050565b7f4e487b7100000000000000000000000000000000000000000000000000000000600052604160045260246000fd5b6109bb82610972565b810181811067ffffffffffffffff821117156109da576109d9610983565b5b80604052505050565b60006109ed6108c9565b90506109f982826109b2565b919050565b600067ffffffffffffffff821115610a1957610a18610983565b5b610a2282610972565b9050602081019050919050565b82818337600083830152505050565b6000610a51610a4c846109fe565b6109e3565b905082815260208101848484011115610a6d57610a6c61096d565b5b610a78848285610a2f565b509392505050565b600082601f830112610a9557610a94610968565b5b8135610aa5848260208601610a3e565b91505092915050565b60008060408385031215610ac557610ac46108d3565b5b600083013567ffffffffffffffff811115610ae357610ae26108d8565b5b610aef85828601610a80565b925050602083013567ffffffffffffffff811115610b1057610b0f6108d8565b5b610b1c85828601610a80565b9150509250929050565b600060208284031215610b3c57610b3b6108d3565b5b600082013567ffffffffffffffff811115610b5a57610b596108d8565b5b610b6684828501610a80565b91505092915050565b600081519050919050565b600082825260208201905092915050565b60005b83811015610ba9578082015181840152602081019050610b8e565b60008484015250505050565b6000610bc082610b6f565b610bca8185610b7a565b9350610bda818560208601610b8b565b610be381610972565b840191505092915050565b6000819050919050565b610c0181610bee565b82525050565b610c10816108fd565b82525050565b60006080820190508181036000830152610c308187610bb5565b90508181036020830152610c448186610bb5565b9050610c536040830185610bf8565b610c606060830184610c07565b95945050505050565b60008115159050919050565b610c7e81610c69565b82525050565b6000602082019050610c996000830184610c75565b92915050565b6000602082019050610cb46000830184610c07565b92915050565b7f4f6e6c792061646d696e00000000000000000000000000000000000000000000600082015250565b6000610cf0600a83610b7a565b9150610cfb82610cba565b602082019050919050565b60006020820190508181036000830152610d1f81610ce3565b9050919050565b7f4e6f7420617574686f72697a6564000000000000000000000000000000000000600082015250565b6000610d5c600e83610b7a565b9150610d6782610d26565b602082019050919050565b60006020820190508181036000830152610d8b81610d4f565b9050919050565b600081905092915050565b6000610da882610b6f565b610db28185610d92565b9350610dc2818560208601610b8b565b80840191505092915050565b6000610dda8284610d9d565b915081905092915050565b7f4e487b7100000000000000000000000000000000000000000000000000000000600052602260045260246000fd5b60006002820490506001821680610e2c57607f821691505b602082108103610e3f57610e3e610de5565b5b50919050565b7f416c726561647920657869737473000000000000000000000000000000000000600082015250565b6000610e7b600e83610b7a565b9150610e8682610e45565b602082019050919050565b60006020820190508181036000830152610eaa81610e6e565b9050919050565b60008190508160005260206000209050919050565b60006020601f8301049050919050565b600082821b905092915050565b600060088302610f137fffffffffffffffffffffffffffffffffffffffffffffffffffffffffffffffff82610ed6565b610f1d8683610ed6565b95508019841693508086168417925050509392505050565b6000819050919050565b6000610f5a610f55610f5084610bee565b610f35565b610bee565b9050919050565b6000819050919050565b610f7483610f3f565b610f88610f8082610f61565b848454610ee3565b825550505050565b600090565b610f9d610f90565b610fa8818484610f6b565b505050565b5b81811015610fcc57610fc1600082610f95565b600181019050610fae565b5050565b601f82111561101157610fe281610eb1565b610feb84610ec6565b81016020851015610ffa578190505b61100e61100685610ec6565b830182610fad565b50505b505050565b600082821c905092915050565b600061103460001984600802611016565b1980831691505092915050565b600061104d8383611023565b9150826002028217905092915050565b61106682610b6f565b67ffffffffffffffff81111561107f5761107e610983565b5b6110898254610e14565b611094828285610fd0565b600060209050601f8311600181146110c757600084156110b5578287015190505b6110bf8582611041565b865550611127565b601f1984166110d586610eb1565b60005b828110156110fd578489015182556001820191506020850194506020810190506110d8565b8683101561111a5784890151611116601f891682611023565b8355505b6001600288020188555050505b50505050505056fea26469706673582212205e63d2280cdbf736429776dc7d899442c781dec73445f611350bdc49967d8f9564736f6c634300081c0033",
  "linkReferences": {},
  "deployedLinkReferences": {}
}